:100000000C9480000C94FC030C94D5030C94A80071
:100010000C94A8000C94A8000C94A8000C94A800C0
:100020000C94A8000C94A8000C94A8000C94A800B0
:100030000C94A8000C94A8000C94A8000C94A800A0
:100040000C948B030C94A8000C9449040C94230486
:100050000C94A8000C94A8000C94A8000C94A80080
:100060000C94A8000C94A8004E414E494E49545996
:10007000494E46CDCCCC3D0AD7233C17B7D1387773
:10008000CC2B329595E6241FB14F0A000020410089
:1000900000C84200401C4620BCBE4CCA1B0E5AAED3
:1000A000C59D7400000000240027002A0000000005
:1000B00000250028002B0000000000230026002956
:1000C0000004040404040404040202020202020301
:1000D000030303030301020408102040800102040B
:1000E000081020010204081020000000080002018E
:1000F00000000304070000000000000000007B0473
:1001000011241FBECFEFD8E0DEBFCDBF22E0AEE1AD
:10011000B1E001C01D92A831B207E1F711E0A0E003
:10012000B1E0E8EEFCE102C005900D92AE31B107FE
:10013000D9F710E0C0E8D0E004C02197FE010E948A
:100140007A0CCF37D107C9F70E9415050C94720EAF
:100150000C940000833081F028F4813099F08230D3
:10016000A9F008958730A9F08830C9F08430B1F43F
:10017000809180008F7D03C0809180008F77809375
:100180008000089584B58F7784BD089584B58F7DF0
:10019000FBCF8091B0008F778093B000089580915D
:1001A000B0008F7DF9CFCF93DF93282F30E0F90196
:1001B000E751FF4F8491F901EB52FF4FD491F901C0
:1001C000EF53FF4FC491CC23A1F081110E94AA00EC
:1001D000EC2FF0E0EE0FFF1FE954FF4FA591B49113
:1001E000EC91ED2381E090E009F480E0DF91CF9184
:1001F000089580E090E0FACF1F93CF93DF93282FEC
:1002000030E0F901E751FF4F8491F901EB52FF4FC4
:10021000D491F901EF53FF4FC491CC23A9F0162FCD
:1002200081110E94AA00EC2FF0E0EE0FFF1FE355B2
:10023000FF4FA591B4918FB7F894EC91111108C0BC
:10024000D095DE23DC938FBFDF91CF911F9108956E
:10025000DE2BF8CFCF93DF9390E0FC01EB52FF4F02
:1002600024918F539F4FFC0184918823D1F090E01B
:10027000880F991FFC01ED55FF4FA591B491FC012A
:10028000E355FF4FC591D49161110EC09FB7F8940B
:100290008C91E22FE0958E238C932881E223E883D2
:1002A0009FBFDF91CF9108958FB7F894EC91E22B27
:1002B000EC938FBFF6CFCF93DF93EC0161E089E041
:1002C0000E942A01209731F460E089E0DF91CF910C
:1002D0000C94FC00CF3FD10511F461E0F6CFE2EFC2
:1002E000F0E0E491E33029F140F4E130B1F0E230A4
:1002F000D9F0C038D1058CF7E7CFE73021F1E830ED
:1003000051F1E430B1F780918000806280938000E9
:10031000D0938B00C0938A0004C084B5806884BDEC
:10032000C7BDDF91CF91089584B5806284BDC8BDFB
:10033000F8CF80918000806880938000D0938900FE
:10034000C0938800EECF8091B00080688093B000A9
:10035000C093B300E6CF8091B00080628093B0007C
:10036000C093B400DECFCF93DF9382E00E94D3002E
:10037000EC0183E00E94D300CC0FDD1F8C2B9D2B62
:1003800020912201309123018D30910549F0843074
:10039000910531F08230910519F08B309105B9F556
:1003A0002F5F3F4F30932301209322018091220140
:1003B00090912301092E000CAA0BBB0B80931E0108
:1003C00090931F01A0932001B093210160911E0121
:1003D00070911F0180912001909121010E94EF09ED
:1003E0002BED3FE049EC50E40E944E0A20E030E063
:1003F00040EF52E40E94CD0B6093D2017093D30181
:100400008093D4019093D501DF91CF9108958E30E0
:10041000910541F0AC01475051094230510510F0AF
:10042000019721F621503109BDCF0895AF92BF92B7
:10043000CF92DF92EF92FF920F931F93CF93DF93B0
:100440006C017B018B01040F151FEB015E01AE18DF
:10045000BF08C017D10759F06991D601ED91FC9101
:100460000190F081E02DC6010995892B79F7C5012E
:10047000DF91CF911F910F91FF90EF90DF90CF9080
:10048000BF90AF900895FC01538D448D252F30E02F
:10049000842F90E0821B930B541710F0CF96089591
:1004A00001970895FC01918D828D981761F0A28DBE
:1004B000AE0FBF2FB11D5D968C91928D9F5F9F7384
:1004C000928F90E008958FEF9FEF08952FB7F894E3
:1004D0008091C6019091C701A091C801B091C90156
:1004E0002FBF8093310190933201A0933301B093D9
:1004F000340189E291E00E94520297FF26C02FB793
:10050000F8948091C6019091C701A091C801B09163
:10051000C9012FBF409131015091320160913301E7
:1005200070913401841B950BA60BB70B40912D01E4
:1005300050912E0160912F01709130018417950721
:10054000A607B707B0F28FEF9FEF0895FC01918DDA
:10055000828D981731F0828DE80FF11D858D90E026
:1005600008958FEF9FEF0895FC01918D228D892FC3
:1005700090E0805C9F4F821B91098F7399270895AB
:1005800089E291E00E94B40221E0892B09F420E085
:10059000822F089580E090E0892B29F00E94C0020C
:1005A00081110C9400000895FC01A48DA80FB92FAF
:1005B000B11DA35ABF4F2C91848D90E001968F738B
:1005C0009927848FA689B7892C93A089B1898C91AA
:1005D000837080648C93938D848D981306C00288F9
:1005E000F389E02D80818F7D80830895EF92FF92C3
:1005F0000F931F93CF93DF93EC0181E0888F9B8D46
:100600008C8D98131AC0E889F989808185FF15C0FF
:100610009FB7F894EE89FF896083E889F989808122
:100620008370806480839FBF81E090E0DF91CF91F1
:100630001F910F91FF90EF900895F62E0B8D10E013
:100640000F5F1F4F0F731127E02E8C8D8E110CC082
:100650000FB607FCFACFE889F989808185FFF5CFCD
:10066000CE010E94D402F1CFEB8DEC0FFD2FF11DD6
:10067000E35AFF4FF0829FB7F8940B8FEA89FB890A
:1006800080818062CFCFCF93DF93EC01888D882368
:10069000B9F0AA89BB89E889F9898C9185FD03C0E5
:1006A000808186FD0DC00FB607FCF7CF8C9185FFCA
:1006B000F2CF808185FFEDCFCE010E94D402E9CF39
:1006C000DF91CF9108950F931F93CF93DF93EC01A8
:1006D00088819981009759F02A813B812617370735
:1006E00030F081E0DF91CF911F910F9108958B0140
:1006F0006F5F7F4F0E94A50D009759F09983888303
:100700001B830A832C813D81232B59F7FC01108226
:10071000E8CF80E0E7CF1F920F920FB60F9211241F
:100720002F933F938F939F93AF93BF938091C60175
:100730009091C701A091C801B091C90130912801E1
:1007400023E0230F2D3758F50196A11DB11D2093ED
:1007500028018093C6019093C701A093C801B0936C
:10076000C9018091240190912501A0912601B091A9
:1007700027010196A11DB11D8093240190932501AD
:10078000A0932601B0932701BF91AF919F918F91C4
:100790003F912F910F900FBE0F901F90189526E854
:1007A000230F0296A11DB11DD2CF1F920F920FB63B
:1007B0000F9211242F933F934F935F936F937F93E7
:1007C0008F939F93AF93BF93EF93FF93E0910201B9
:1007D000F09103010995FF91EF91BF91AF919F9126
:1007E0008F917F916F915F914F913F912F910F90DA
:1007F0000FBE0F901F9018951F920F920FB60F9279
:1008000011242F933F934F935F936F937F938F9315
:100810009F93AF93BF93EF93FF93E0910001F0910B
:1008200001010995FF91EF91BF91AF919F918F9138
:100830007F916F915F914F913F912F910F900FBEDC
:100840000F901F9018951F920F920FB60F921124C0
:100850002F933F934F935F936F937F938F939F93C8
:10086000AF93BF93EF93FF9389E291E00E94D4028C
:10087000FF91EF91BF91AF919F918F917F916F9178
:100880005F914F913F912F910F900FBE0F901F904E
:1008900018951F920F920FB60F9211242F938F93DA
:1008A0009F93EF93FF93E0913901F0913A0180819A
:1008B000E0913F01F091400182FD1BC09081809149
:1008C00042018F5F8F7320914301821741F0E091C5
:1008D0004201F0E0E75DFE4F958F80934201FF916A
:1008E000EF919F918F912F910F900FBE0F901F90BE
:1008F00018958081F4CFE9E2F1E01382128288EE4C
:1009000093E0A0E0B0E084839583A683B7838EE074
:1009100091E09183808385EC90E09587848784ECD7
:1009200090E09787868780EC90E0918B808B81ECBC
:1009300090E0938B828B82EC90E0958B848B86EC9D
:1009400090E0978B868B118E128E138E148EE6EDAF
:10095000F1E08EEC91E0978F868F82ED91E0958F9C
:10096000848F8AEC91E091A380A312AE12AA13AAFD
:1009700014AA15AA80E090E0AFE7B3E486AB97AB8A
:10098000A0AFB1AF84E690E0A0E0B0E086A797A763
:10099000A0ABB1AB118E108E81E090E0938F828F6F
:1009A00083AF80E090E0A0E8BFE380839183A283DF
:1009B000B3834DEC5CEC6CEC7DE344835583668340
:1009C00077834AE057ED63E27CE340875187628793
:1009D000738784879587A687B7878BE097EDA3E217
:1009E000BCE3808B918BA28BB38B8CEC9CECACEC3E
:1009F000BDE3848B958BA68BB78B2FB7F894809132
:100A0000C6019091C701A091C801B091C9012FBF43
:100A100046A557A560A971A9841B950BA60BB70B1A
:100A200082A393A3A4A3B5A30895CF93DF93CDB7D7
:100A3000DEB765970FB6F894DEBF0FBECDBF7894D2
:100A400084B5826084BD84B5816084BD85B58260D3
:100A500085BD85B5816085BD80916E008160809384
:100A60006E001092810080918100826080938100ED
:100A700080918100816080938100809180008160FD
:100A8000809380008091B10084608093B100809158
:100A9000B00081608093B00080917A008460809380
:100AA0007A0080917A00826080937A0080917A0047
:100AB000816080937A0080917A00806880937A00C8
:100AC0001092C100E0913901F0913A0182E08083F7
:100AD000E0913901F0913A011082E0913501F091F5
:100AE00036018FEF8083E0913701F09138018083E8
:100AF00010924101E0913D01F0913E0186E080833A
:100B0000E0913B01F0913C01808180618083E09124
:100B10003B01F0913C01808188608083E0913B0142
:100B2000F0913C01808180688083E0913B01F091ED
:100B30003C0180818F7D808360E082E00E942A01F9
:100B400060E083E00E942A0161E089E00E942A01BE
:100B500061E088E00E942A0123EB31E0309301013B
:100B600020930001809169008C7F816080936900EF
:100B7000E89A309303012093020180916900837FFA
:100B8000846080936900E99A412C512C8FE7682E8C
:100B900083EC782E409208025092090260920A0279
:100BA00070920B02C12CD12C9FE7E92E93E4F92E11
:100BB000C0920C02D0920D02E0920E02F0920F024F
:100BC000809110020091F4011091F501882309F43D
:100BD0004FC2D8018D909D90AD90BC90A701960119
:100BE000C501B4010E94750C181634F5F801C082D5
:100BF000D182E282F3828090FC019090FD01A0906E
:100C0000FE01B090FF01C0900C02D0900D02E09068
:100C10000E02F0900F02A7019601C501B4010E94D7
:100C2000750C1816D4F4C092FC01D092FD01E0922C
:100C3000FE01F092FF0121C020E030E04FE753ECCD
:100C4000C501B4010E94E80987FFD5CFD8014D92B4
:100C50005D926D927C921397CECFC0900802D09097
:100C60000902E0900A02F0900B02A7019601C5016B
:100C7000B4010E94E80987FDD6CF81E0809310027D
:100C800089E291E00E94B402049708F458C01A82E5
:100C900019821C821B821E821D8270E060E0CE01E0
:100CA00001960E94630329813A8181112BC021158D
:100CB000310519F0C9010E941C0D1A8219821E8289
:100CC0001D821C821B820E94660297FD23C08F83B7
:100CD00018860D811E810F5F1F4FB801CE0101964E
:100CE0000E946303882379F329813A818D819E8153
:100CF000BE01695F7F4F820F931F0E946B0E1E83A0
:100D00000D83E1CF1E821D826DE171E0C9010E9459
:100D10006B0ED9CF89819A81009709F47CC10E941A
:100D200073086093CA017093CB018093CC019093B8
:100D3000CD0189819A81009711F00E941C0D80914C
:100D40001002882309F431C18FB7F8942091C601AD
:100D50003091C7014091C8015091C9012A8B3B8B4A
:100D60004C8B5D8B8FBF8091F8019091F901A09120
:100D7000FA01B091FB014A895B896C897D89481B26
:100D8000590B6A0B7B0B8091040290910502A09194
:100D90000602B0910702481759076A077B0708F453
:100DA00004C1E091F201F091F30180819181A2816F
:100DB000B38189879A87AB87BC87E091F601F09170
:100DC000F7019C01AD0160817181828193810E9454
:100DD000600B4B015C0120910002309101024091B7
:100DE00002025091030269857A858B859C850E9459
:100DF000600B6B017C012091E6013091E70140918D
:100E0000E8015091E901C501B4010E944E0A209108
:100E1000FC013091FD014091FE015091FF010E94C3
:100E2000610B2B013C014092FC015092FD0160924C
:100E3000FE017092FF01909111029D8791111AC0DD
:100E40002091E2013091E3014091E4015091E501EC
:100E5000C701B6010E944E0A9B01AC01C301B20159
:100E60000E94600B6093FC017093FD018093FE0172
:100E70009093FF014090FC015090FD016090FE01B5
:100E80007090FF0110910C0200910D0230900E0243
:100E900020900F02212F302F432D522DC301B2017C
:100EA0000E94750C18160CF0BAC0812F902FA32D3C
:100EB000B22D8093FC019093FD01A093FE01B093AD
:100EC000FF019D85992309F4C1C02091E201309171
:100ED000E3014091E4015091E501C501B4010E9494
:100EE0004E0A4B015C012091EA013091EB014091E7
:100EF000EC015091ED01C701B6010E944E0A9B0121
:100F0000AC016091FC017091FD018091FE01909116
:100F1000FF010E94600BA50194010E94610B6B010F
:100F20007C019B01AC01612F702F832D922D0E94BB
:100F3000E80987FD16C0109108020091090230905F
:100F40000A0220900B02212F302F432D522DB60183
:100F5000C7010E94E80987FD04C01C2D0D2D3E2C01
:100F60002F2CE091F401F091F501812F902FA32D0A
:100F7000B22D80839183A283B38329853A854B85E3
:100F80005C8520930002309301024093020250934B
:100F900003028A899B89AC89BD898093F80190936B
:100FA000F901A093FA01B093FB0120E030E0A90120
:100FB0006091CE017091CF018091D0019091D101CB
:100FC0000E94750C18160CF045C061E088E00E9484
:100FD000FC006091CE017091CF018091D001909181
:100FE000D1010E943F0CCB010E945B0141E050E027
:100FF0006CE171E089E291E00E941602A0E0B0E0AD
:10100000AB2B09F43DCE0E94C002882309F438CEF0
:101010000E94000035CE60E070E0CB0182CE2091CE
:1010200008023091090240910A0250910B022E876A
:101030003F87488B598BC301B2010E94E80987FFA3
:1010400040CF8E859F85A889B98933CF812C912C7B
:10105000540149CF60E088E00E94FC006091CE011D
:101060007091CF018091D0019091D1019058B9CF6A
:10107000F80180809180A280B3808092FC019092E0
:10108000FD01A092FE01B092FF01E091F201F0910A
:10109000F30180819181A281B381809300029093BA
:1010A0000102A0930202B093030220E030E04FE778
:1010B00053E4C501B4010E94750C18160CF4B3CDAD
:1010C00020E030E04FE753ECC501B4010E94E8098D
:1010D00087FFD3CD4092FC015092FD016092FE014A
:1010E0007092FF01CACD662777270C947708B0E08D
:1010F000A0E0EDE7F8E00C94200B5C017B016115AA
:10110000710519F0DB018D939C9385010F5F1F4FD3
:10111000F501D0818D2F90E00E94C7096C01892BC9
:10112000B9F5DD32B9F50F5F1F4FD5011196DC918E
:10113000C1E05801F1E0AF1AB10843E050E060E7C8
:1011400070E0C5010E94D009892B69F5680182E031
:10115000C80ED11C45E050E06BE670E0C6010E946D
:10116000D009892B21F4680197E0C90ED11CE11444
:10117000F10419F0D701CD92DC9260E070E080E8D4
:101180009FEFC111FFC060E070E080E89FE7FAC008
:101190005801BBCFDB3229F485010E5F1F4FF501EB
:1011A000D181C0E0C6CF43E050E068E670E0C50101
:1011B0000E94D009892BE9F0F80110E000E020E05E
:1011C00030E0A9015F01B0ED8B2E8D0E89E088150E
:1011D000C8F19C2E689491F88C2F8870C2FF16C0BD
:1011E000811102C00F5F1F4F3196D501DC91C92DCF
:1011F000E9CFE114F10429F00E5F1F4FF7011183CD
:10120000008360E070E080EC9FE7BCC0882311F0B1
:1012100001501109A5E0B0E00E940F0B9B01AC0149
:10122000220F331F441F551F280D311D411D511D15
:10123000283999E93907490799E15907A8F2C660A1
:101240009C2ED2CFAEEF8A1206C0C3FD3CC09C2EAE
:10125000689493F8C9CFDF7DD534A9F580818D32AC
:1012600039F4C061DF011296818162E070E006C04E
:10127000DF018B32C1F3119661E070E080535D01B4
:10128000A61AB70A8A30F8F4E0E8CE16ECE0DE06DB
:101290005CF4B601660F771F660F771FC60ED71E68
:1012A000CC0CDD1CC80ED11C5D01FFEFAF1ABF0ACC
:1012B0008C9180538A30A8F1C4FF03C0D194C194AB
:1012C000D1080C0D1D1DC1FF09C0E114F10431F05E
:1012D00081E0A81AB108D701AD92BC92CA01B90148
:1012E0000E94ED09C370C33009F490584B015C01B2
:1012F00020E030E0A9010E94E809882309F440C0F9
:10130000CFE9D0E017FF05C0119501951109C7E895
:10131000D0E06E01B8E1CB1AD10880E2E82EF12CC2
:101320000FC0D501B1CFFE01259135914591549162
:101330000E191F09C501B4010E944E0A4B015C0140
:10134000D501C4010E151F0574F72497F594E79491
:10135000CC16DD06A9F78A2F880F8B2F881F8F3FA9
:1013600049F020E030E0A901C501B4010E94E8097C
:10137000811106C082E290E09093130280931202E2
:10138000C501B401CDB7DEB7ECE00C943C0B911174
:101390000C94BB0A803219F089508550C8F7089523
:1013A000FB01DC014150504088F08D9181341CF0EC
:1013B0008B350CF4805E659161341CF06B350CF458
:1013C000605E861B611171F3990B0895881BFCCF39
:1013D0000E942A0A08F481E00895E89409C097FB66
:1013E0003EF490958095709561957F4F8F4F9F4FFC
:1013F0009923A9F0F92F96E9BB279395F695879540
:1014000077956795B795F111F8CFFAF4BB0F11F402
:1014100060FF1BC06F5F7F4F8F4F9F4F16C08823A9
:1014200011F096E911C0772321F09EE8872F762FDF
:1014300005C0662371F096E8862F70E060E02AF020
:101440009A95660F771F881FDAF7880F969587950C
:1014500097F90895990F0008550FAA0BE0E8FEEFE1
:1014600016161706E807F907C0F012161306E40768
:10147000F50798F0621B730B840B950B39F40A2661
:1014800061F0232B242B252B21F408950A2609F43F
:10149000A140A6958FEF811D811D08950E94610ACC
:1014A0000C94D50A0E94C70A38F00E94CE0A20F098
:1014B000952311F00C94BE0A0C94C40A11240C94C8
:1014C000090B0E94E60A70F3959FC1F3950F50E057
:1014D000551F629FF001729FBB27F00DB11D639FE6
:1014E000AA27F00DB11DAA1F649F6627B00DA11D8C
:1014F000661F829F2227B00DA11D621F739FB00D32
:10150000A11D621F839FA00D611D221F749F3327A1
:10151000A00D611D231F849F600D211D822F762F3A
:101520006A2F11249F5750409AF0F1F088234AF017
:10153000EE0FFF1FBB1F661F771F881F9150504083
:10154000A9F79E3F510580F00C94BE0A0C94090B3C
:101550005F3FE4F3983ED4F3869577956795B7950A
:10156000F795E7959F5FC1F7FE2B880F911D969524
:10157000879597F9089599278827089597F99F6780
:1015800080E870E060E008959FEF80EC089500240B
:101590000A941616170618060906089500240A94D8
:1015A00012161306140605060895092E0394000C5E
:1015B00011F4882352F0BB0F40F4BF2B11F460FFED
:1015C00004C06F5F7F4F8F4F9F4F089557FD905816
:1015D000440F551F59F05F3F71F04795880F97FBF7
:1015E000991F61F09F3F79F08795089512161306B1
:1015F0001406551FF2CF4695F1DF08C016161706E0
:101600001806991FF1CF8695710561050894089514
:10161000E894BB2766277727CB0197F908950E94A6
:10162000510BA59F900DB49F900DA49F800D911D0F
:10163000112408952F923F924F925F926F927F9262
:101640008F929F92AF92BF92CF92DF92EF92FF92D2
:101650000F931F93CF93DF93CDB7DEB7CA1BDB0B7E
:101660000FB6F894DEBF0FBECDBF09942A88398823
:1016700048885F846E847D848C849B84AA84B9842A
:10168000C884DF80EE80FD800C811B81AA81B98136
:10169000CE0FD11D0FB6F894DEBF0FBECDBFED014A
:1016A0000895A29FB001B39FC001A39F700D811D3B
:1016B0001124911DB29F700D811D1124911D08955B
:1016C0005058BB27AA270E94780B0C94D50A0E9479
:1016D000C70A38F00E94CE0A20F039F49F3F19F46F
:1016E00026F40C94C40A0EF4E095E7FB0C94BE0AB1
:1016F000E92F0E94E60A58F3BA17620773078407B6
:10170000950720F079F4A6F50C94080B0EF4E095FB
:101710000B2EBA2FA02D0B01B90190010C01CA01AB
:10172000A0011124FF27591B99F0593F50F4503E56
:1017300068F11A16F040A22F232F342F4427585F48
:10174000F3CF469537952795A795F0405395C9F760
:101750007EF41F16BA0B620B730B840BBAF0915018
:10176000A1F0FF0FBB1F661F771F881FC2F70EC0B7
:10177000BA0F621F731F841F48F48795779567958A
:10178000B795F7959E3F08F0B0CF9395880F08F076
:101790009927EE0F9795879508950E94E10B0C9479
:1017A000D50A0E94CE0A58F00E94C70A40F029F4D8
:1017B0005F3F29F00C94BE0A51110C94090B0C9454
:1017C000C40A0E94E60A68F39923B1F3552391F302
:1017D000951B550BBB27AA2762177307840738F0A0
:1017E0009F5F5F4F220F331F441FAA1FA9F335D0FD
:1017F0000E2E3AF0E0E832D091505040E695001CB1
:10180000CAF72BD0FE2F29D0660F771F881FBB1F6A
:10181000261737074807AB07B0E809F0BB0B802D48
:10182000BF01FF2793585F4F3AF09E3F510578F074
:101830000C94BE0A0C94090B5F3FE4F3983ED4F37A
:10184000869577956795B795F7959F5FC9F7880F48
:10185000911D9695879597F90895E1E0660F771F9A
:10186000881FBB1F621773078407BA0720F0621B2B
:10187000730B840BBA0BEE1F88F7E09508950E9456
:10188000460C6894B1110C94090B08950E94EE0A5D
:1018900088F09F5798F0B92F9927B751B0F0E1F031
:1018A000660F771F881F991F1AF0BA95C9F714C0E1
:1018B000B13091F00E94080BB1E008950C94080B30
:1018C000672F782F8827B85F39F0B93FCCF386951A
:1018D00077956795B395D9F73EF490958095709577
:1018E00061957F4F8F4F9F4F08950E942A0A08F4F9
:1018F0008FEF0895EE0FFF1F0590F491E02D0994EE
:101900000F931F93CF93DF938230910510F482E001
:1019100090E0E0911602F091170230E020E0B0E094
:10192000A0E0309799F42115310509F44AC0281B2D
:10193000390B24303105D8F58A819B8161157105F9
:1019400089F1FB0193838283FE0111C040815181A3
:101950000281138148175907E0F04817590799F495
:10196000109761F012960C93129713961C9332966F
:10197000CF01DF91CF911F910F910895009316022F
:1019800010931702F4CF2115310551F04217530778
:1019900038F0A901DB019A01BD01DF01F801C1CFD7
:1019A000EF01F9CF9093170280931602CDCFFE017D
:1019B000E20FF31F819391932250310939832883D9
:1019C000D7CF2091140230911502232B41F420919E
:1019D00006013091070130931502209314022091E3
:1019E0000401309105012115310541F42DB73EB7B1
:1019F0004091080150910901241B350BE09114021C
:101A0000F0911502E217F307A0F42E1B3F0B2817E5
:101A1000390778F0AC014E5F5F4F2417350748F067
:101A20004E0F5F1F509315024093140281939193C0
:101A30009FCFF0E0E0E09CCFCF93DF930097E9F0F9
:101A4000FC01329713821282A0911602B091170204
:101A5000ED0130E020E01097A1F420813181820F68
:101A6000931F20911402309115022817390709F0AD
:101A700061C0F0931502E0931402DF91CF910895B5
:101A8000EA01CE17DF07E8F54A815B819E01411527
:101A90005105B1F7E901FB83EA8349915991C40FDC
:101AA000D51FEC17FD0761F4808191810296840FA8
:101AB000951FE90199838883828193819B838A831F
:101AC000F0E0E0E012968D919C9113970097B9F5A4
:101AD0002D913C911197CD010296820F931F209179
:101AE0001402309115022817390739F6309751F54D
:101AF0001092170210921602B0931502A0931402CE
:101B0000BCCFD383C28340815181840F951FC817F6
:101B1000D90761F44E5F5F4F88819981480F591F43
:101B2000518340838A819B81938382832115310570
:101B300009F0B0CFF0931702E09316029ECFFD019B
:101B4000DC01C0CF13821282D7CFB0E0A0E0EBEA75
:101B5000FDE00C941C0B8C01009751F4CB010E940A
:101B6000800C8C01C801CDB7DEB7E0E10C94380BD6
:101B7000FC01E60FF71F9C0122503109E217F30721
:101B800008F49DC0D901CD91DC911197C617D707F4
:101B900098F0C530D10530F3CE010497861797072A
:101BA00008F3C61BD70B2297C193D1936D937C93F7
:101BB000CF010E941C0DD6CF5B01AC1ABD0A4C01AF
:101BC0008C0E9D1EA0911602B0911702512C412C33
:101BD000F12CE12C109731F58091140290911502AF
:101BE0008815990509F05CC04616570608F058C0DC
:101BF0008091040190910501009741F48DB79EB743
:101C00004091080150910901841B950BE817F907D1
:101C100008F055C0F0931502E0931402F9017183A6
:101C20006083A0CF8D919C91119712966C90129722
:101C300013967C901397A815B90559F56C0142E0ED
:101C4000C40ED11CCA14DB0420F1AC014A195B0993
:101C5000DA011296159780F0628273825183408375
:101C6000D9016D937C93E114F10471F0D7011396BF
:101C7000FC93EE93129776CF22968C0F9D1FF9015D
:101C800091838083F301EFCFF0931702E093160264
:101C900069CF4816590608F42C017D01D3019ACF6B
:101CA000CB010E94800C7C01009749F0AE01B80185
:101CB0000E94620EC8010E941C0D870153CF10E0E4
:101CC00000E050CFFB01DC0102C001900D924150B9
:101CD0005040D8F70895FB01DC0101900D920020DF
:081CE000E1F70895F894FFCF2D
:101CE8001502150200001802800000000000F6022C
:0E1CF800160243024303B4025202A602610028
:00000001FF
